{
  "_format": "hh-sol-artifact-1",
  "contractName": "fest_tips",
  "sourceName": "contracts/fest_tips.sol",
  "abi": [
    {
      "inputs": [],
      "stateMutability": "nonpayable",
      "type": "constructor"
    },
    {
      "inputs": [],
      "name": "getMemos",
      "outputs": [
        {
          "components": [
            {
              "internalType": "string",
              "name": "name",
              "type": "string"
            },
            {
              "internalType": "string",
              "name": "teamname",
              "type": "string"
            },
            {
              "internalType": "string",
              "name": "message",
              "type": "string"
            },
            {
              "internalType": "uint256",
              "name": "timestamp",
              "type": "uint256"
            },
            {
              "internalType": "address",
              "name": "from",
              "type": "address"
            }
          ],
          "internalType": "struct fest_tips.Memo[]",
          "name": "",
          "type": "tuple[]"
        }
      ],
      "stateMutability": "view",
      "type": "function"
    },
    {
      "inputs": [
        {
          "internalType": "string",
          "name": "name",
          "type": "string"
        },
        {
          "internalType": "string",
          "name": "teamname",
          "type": "string"
        },
        {
          "internalType": "string",
          "name": "message",
          "type": "string"
        }
      ],
      "name": "get_tip",
      "outputs": [],
      "stateMutability": "payable",
      "type": "function"
    }
  ],
  "bytecode": "0x608060405234801561001057600080fd5b5033600160006101000a81548173ffffffffffffffffffffffffffffffffffffffff021916908373ffffffffffffffffffffffffffffffffffffffff160217905550610c9c806100616000396000f3fe6080604052600436106100295760003560e01c8063865c51721461002e578063e3a02f3114610059575b600080fd5b34801561003a57600080fd5b50610043610075565b6040516100509190610797565b60405180910390f35b610073600480360381019061006e9190610828565b6102ea565b005b60606000805480602002602001604051908101604052809291908181526020016000905b828210156102e157838290600052602060002090600502016040518060a00160405290816000820180546100cc9061090b565b80601f01602080910402602001604051908101604052809291908181526020018280546100f89061090b565b80156101455780601f1061011a57610100808354040283529160200191610145565b820191906000526020600020905b81548152906001019060200180831161012857829003601f168201915b5050505050815260200160018201805461015e9061090b565b80601f016020809104026020016040519081016040528092919081815260200182805461018a9061090b565b80156101d75780601f106101ac576101008083540402835291602001916101d7565b820191906000526020600020905b8154815290600101906020018083116101ba57829003601f168201915b505050505081526020016002820180546101f09061090b565b80601f016020809104026020016040519081016040528092919081815260200182805461021c9061090b565b80156102695780601f1061023e57610100808354040283529160200191610269565b820191906000526020600020905b81548152906001019060200180831161024c57829003601f168201915b50505050508152602001600382015481526020016004820160009054906101000a900473ffffffffffffffffffffffffffffffffffffffff1673ffffffffffffffffffffffffffffffffffffffff1673ffffffffffffffffffffffffffffffffffffffff168152505081526020019060010190610099565b50505050905090565b6000341161032d576040517f08c379a000000000000000000000000000000000000000000000000000000000815260040161032490610999565b60405180910390fd5b600160009054906101000a900473ffffffffffffffffffffffffffffffffffffffff1673ffffffffffffffffffffffffffffffffffffffff166108fc349081150290604051600060405180830381858888f19350505050158015610395573d6000803e3d6000fd5b5060006040518060a0016040528088888080601f016020809104026020016040519081016040528093929190818152602001838380828437600081840152601f19601f82011690508083019250505050505050815260200186868080601f016020809104026020016040519081016040528093929190818152602001838380828437600081840152601f19601f82011690508083019250505050505050815260200184848080601f016020809104026020016040519081016040528093929190818152602001838380828437600081840152601f19601f8201169050808301925050505050505081526020014281526020013373ffffffffffffffffffffffffffffffffffffffff16815250908060018154018082558091505060019003906000526020600020906005020160009091909190915060008201518160000190816104df9190610b94565b5060208201518160010190816104f59190610b94565b50604082015181600201908161050b9190610b94565b506060820151816003015560808201518160040160006101000a81548173ffffffffffffffffffffffffffffffffffffffff021916908373ffffffffffffffffffffffffffffffffffffffff1602179055505050505050505050565b600081519050919050565b600082825260208201905092915050565b6000819050602082019050919050565b600081519050919050565b600082825260208201905092915050565b60005b838110156105cd5780820151818401526020810190506105b2565b60008484015250505050565b6000601f19601f8301169050919050565b60006105f582610593565b6105ff818561059e565b935061060f8185602086016105af565b610618816105d9565b840191505092915050565b6000819050919050565b61063681610623565b82525050565b600073ffffffffffffffffffffffffffffffffffffffff82169050919050565b60006106678261063c565b9050919050565b6106778161065c565b82525050565b600060a083016000830151848203600086015261069a82826105ea565b915050602083015184820360208601526106b482826105ea565b915050604083015184820360408601526106ce82826105ea565b91505060608301516106e3606086018261062d565b5060808301516106f6608086018261066e565b508091505092915050565b600061070d838361067d565b905092915050565b6000602082019050919050565b600061072d82610567565b6107378185610572565b93508360208202850161074985610583565b8060005b8581101561078557848403895281516107668582610701565b945061077183610715565b925060208a0199505060018101905061074d565b50829750879550505050505092915050565b600060208201905081810360008301526107b18184610722565b905092915050565b600080fd5b600080fd5b600080fd5b600080fd5b600080fd5b60008083601f8401126107e8576107e76107c3565b5b8235905067ffffffffffffffff811115610805576108046107c8565b5b602083019150836001820283011115610821576108206107cd565b5b9250929050565b60008060008060008060608789031215610845576108446107b9565b5b600087013567ffffffffffffffff811115610863576108626107be565b5b61086f89828a016107d2565b9650965050602087013567ffffffffffffffff811115610892576108916107be565b5b61089e89828a016107d2565b9450945050604087013567ffffffffffffffff8111156108c1576108c06107be565b5b6108cd89828a016107d2565b92509250509295509295509295565b7f4e487b7100000000000000000000000000000000000000000000000000000000600052602260045260246000fd5b6000600282049050600182168061092357607f821691505b602082108103610936576109356108dc565b5b50919050565b600082825260208201905092915050565b7f506c6561736520706179206d6f7265207468616e203020657468657200000000600082015250565b6000610983601c8361093c565b915061098e8261094d565b602082019050919050565b600060208201905081810360008301526109b281610976565b9050919050565b7f4e487b7100000000000000000000000000000000000000000000000000000000600052604160045260246000fd5b60008190508160005260206000209050919050565b60006020601f8301049050919050565b600082821b905092915050565b600060088302610a4a7fffffffffffffffffffffffffffffffffffffffffffffffffffffffffffffffff82610a0d565b610a548683610a0d565b95508019841693508086168417925050509392505050565b6000819050919050565b6000610a91610a8c610a8784610623565b610a6c565b610623565b9050919050565b6000819050919050565b610aab83610a76565b610abf610ab782610a98565b848454610a1a565b825550505050565b600090565b610ad4610ac7565b610adf818484610aa2565b505050565b5b81811015610b0357610af8600082610acc565b600181019050610ae5565b5050565b601f821115610b4857610b19816109e8565b610b22846109fd565b81016020851015610b31578190505b610b45610b3d856109fd565b830182610ae4565b50505b505050565b600082821c905092915050565b6000610b6b60001984600802610b4d565b1980831691505092915050565b6000610b848383610b5a565b9150826002028217905092915050565b610b9d82610593565b67ffffffffffffffff811115610bb657610bb56109b9565b5b610bc0825461090b565b610bcb828285610b07565b600060209050601f831160018114610bfe5760008415610bec578287015190505b610bf68582610b78565b865550610c5e565b601f198416610c0c866109e8565b60005b82811015610c3457848901518255600182019150602085019450602081019050610c0f565b86831015610c515784890151610c4d601f891682610b5a565b8355505b6001600288020188555050505b50505050505056fea2646970667358221220c09325c9c08fd304467019f1b2da55ff616b4e3b6975d7ba6fb234431e034de964736f6c63430008110033",
  "linkReferences": {},
  "deployedLinkReferences": {}
}